:020000040800F2
:10000000C8190020A5010008CB210008031F000823
:10001000C921000817090008612A00080000000033
:10002000000000000000000000000000CF210008D8
:10003000D509000800000000CD210008D1210008EA
:10004000BF010008BF010008BF010008BF01000890
:10005000BF010008BF010008BF010008BF01000880
:10006000BF010008BF010008BF010008BF01000870
:10007000BF010008BF010008BF010008BF01000860
:10008000BF010008BF010008BF010008BF01000850
:10009000BF010008BF010008BF010008BF01000840
:1000A000BF010008BF010008BF010008BF01000830
:1000B000BF010008B1220008BD220008BF010008EE
:1000C000BF010008BF010008BF010008BF01000810
:1000D000BF010008552A0008BF010008BF01000841
:1000E000BF010008BF010008BF010008BF010008F0
:1000F000BF010008BF010008BF010008BF010008E0
:10010000BF010008BF010008C9220008BF010008A4
:10011000BF010008BF010008BF010008BF010008BF
:10012000BF010008BF01000819090008BF0100084D
:10013000BF010008BF010008BF010008BF0100089F
:10014000BF010008BF010008BF010008BF0100088F
:10015000BF010008BF01000825090008BF01000811
:10016000BF010008BF010008BF010008BF0100086F
:10017000BF010008BF010008BF0100080000000027
:10018000BF010008BF010008DFF814D000F0B0FB89
:1001900000F076F800480047D145000800F0F2FA78
:1001A000C81900200648804706480047FEE7FEE7DA
:1001B000FEE7FEE7FEE7FEE7FEE7FEE7FEE7FEE717
:1001C0005D220008890100082DE9F05F0546002046
:1001D00092469B4688460646814640241BE02846B8
:1001E00041464746224600F0A6FA53465A46C01AF0
:1001F000914110D311461846224600F08DFA2D1A6F
:1002000067EB01084F4622460120002100F084FAE6
:1002100017EB00094E41201EA4F10104DFDC484623
:1002200031462A464346BDE8F09F40EA01039B075A
:1002300003D009E008C9121F08C0042AFAD203E05B
:1002400011F8013B00F8013B521EF9D27047D2B2BF
:1002500001E000F8012B491EFBD270470022F6E7AF
:1002600010B513460A4604461946FFF7F0FF20462C
:1002700010BD421C10F8011B0029FBD1801A7047E9
:1002800070B5054C054D03E0206820448047241DCF
:10029000AC42F9D170BD0000CC500008D05000082D
:1002A0002DE9F041074615460E46102003F0CEFE1C
:1002B00004000AD06760C4E9026500F05FFA0168D3
:1002C000216004600020BDE8F0810120FBE72DE9FA
:1002D000FE4F804681EA0300C00F0C46009021F0DB
:1002E000004123F00045B8EB0200A94105D2404689
:1002F000214690461C460B46024623F00040104320
:1003000047D0270DC7F30A00C3F30A510290401AE1
:10031000019040286BDAC3F3130040F4801B00986F
:10032000924620B10023D2EB030A63EB0B0B01983A
:100330005946C0F14002504600F0EEF906460D461F
:1003400050465946019A00F006FA10EB0800614148
:10035000002487EA115284EAE7731A4340D0009AD6
:1003600062B3019A012A4FEA075215DC001B61EBC8
:1003700002014FF0004202EA0752CDE90042001CA0
:1003800041F5801132462B4600F063FA03B0BDE818
:10039000F08F40462146F9E7001B61EB0201001C8B
:1003A00041F5801300185B412018A2F5001747EBB8
:1003B000030140EAD570B6196D4111E06D084FEAAE
:1003C000360645EAC0754FEA0752001B61EB020191
:1003D000001C41F5801149084FEA300000195141D5
:1003E00032462B4603B0BDE8F04F00F023BA009828
:1003F000012240000023D0EB020263EBE07300987F
:1004000021464FEAE074B8EB000061EB0401E9E734
:1004100083F000435BE781F0004158E72DE9FE4F90
:1004200081EA030404F0004421F0004100944FF0FD
:10043000000B23F0004350EA01045ED052EA0304AB
:100440005BD0C3F30A54C1F30A552C44A4F2F3342D
:100450000194A0FB0254C1F3130141F48011C3F3D2
:10046000130343F4801301FB024400FB034E840A90
:10047000970A44EA815447EA8357A4FB0768029528
:100480008D0A05FB07854FEA932C04FB0C542705C6
:10049000029D4FEA065847EA1637B5EB08056EEBA2
:1004A000070C870E920E47EA811742EA8312A7FBD8
:1004B0000201B6EB0B0164EB00042B0D43EA0C3395
:1004C0005E1844EB1C50DA465146E7FB0201C5F3C7
:1004D00013044FEA0B3343EA14534FEA0432019CEE
:1004E00043EA0603A4F10C040294009CCDE900B495
:1004F00000F0AFF903B0BDE8F08F00200146F9E746
:100500002DE9F04D81EA030404F0004B21F0004591
:1005100014464FF0000A23F0004150EA050220D0B3
:1005200054EA01021DD0C5F30A570246C5F313036E
:10053000C1F31300C1F30A5640F4801543F480134D
:10054000A7EB0608101BD64608F2FD3873EB050032
:1005500002D308F1010801E092185B41B8F1000FE5
:1005600003DA00200146BDE8F08D00204FF4801131
:10057000064684460EE0171B73EB050705D3121BD6
:1005800063EB050306434CEA010C49084FEA3000CF
:1005900092185B4150EA0107EDD152EA030012D0F4
:1005A00082EA040083EA0501084305D0101BAB4131
:1005B00006D20122002306E000224FF0004302E0B1
:1005C0006FF0010253101AEB06004CEB085110EBD0
:1005D0000A0041EB0B01BDE8F04D00F02BB90EB560
:1005E000C10F80EAE0700844CA07002140F233439B
:1005F0008DE80E000A460B4600F02BF903B000BD53
:100600000EB540F2334102910021CDE900110A46B6
:100610000B4600F01EF903B000BD70B5C1F30A52DD
:1006200001F000450024C1F3130140F2FF3341F40F
:1006300080119A4201DA002070BD40F233439A42A1
:10064000A2F2334203DC524200F075F800E0904021
:100650002C43F1D0404270BD00F0004230F0004029
:100660000AD0C10D01F56071C0F3160042EA0151D4
:10067000C208400711437047002001467047000040
:1006800030B5041E71F1000404DB4FF00044404219
:1006900064EB0101141E73F1000405DB1C464FF0EE
:1006A0000043524263EB04038B4208BF824230BDD9
:1006B00030B5041E71F1000404DB4FF000444042E9
:1006C00064EB0101141E73F1000405DB1C464FF0BE
:1006D0000043524263EB0403994208BF904230BD8D
:1006E00001F0004330B421F0004150EA010206D08D
:1006F0000A0DA2F56072C1F31301002A02DC30BCBE
:1007000000207047440F44EAC104C100E01830BC27
:1007100000EBC25000F057B8202A04DB203A00FA60
:1007200002F1002070479140C2F1200320FA03F348
:10073000194390407047202A04DB203A21FA02F046
:100740000021704721FA02F3D040C2F1200291400B
:10075000084319467047202A06DBCB17203A41FA96
:1007600002F043EAE07306E041FA02F3D040C2F13E
:100770002002914008431946704700000048704726
:10078000480000202DE9F0410646FFF7F7FF8046BC
:10079000454613E016B1E068B0420ED120682860EB
:1007A000D4E90101D8F800708847204603F020FC06
:1007B000D8F80000B842EBD100E025462C68002CA8
:1007C000E8D1BDE8F0810029A8BF7047401C49006E
:1007D00008BF20F00100704710B4B0FA80FC00FAA6
:1007E0000CF050EA010404BF10BC704749B1CCF1D1
:1007F000200421FA04F411FA0CF118BF012121435D
:100800000843A3EB0C01CB1D4FEA00614FEA102017
:1008100042BF002010BC704700EBC35010440029B9
:10082000A4BF10BC7047401C490008BF20F0010065
:1008300010BC704710B5141E73F1000408DA401C98
:1008400041F1000192185B411A4301D120F00100EF
:1008500010BD2DE9F04D92469B4611B1B1FA81F2DF
:1008600002E0B0FA80F220329046FFF755FF0446CE
:100870000F4640EA0A0041EA0B0153465A46084334
:1008800013D0114653EA010019D0C8F14002504676
:10089000FFF751FF05460E46504659464246FFF7C0
:1008A0003BFF084305D0012004E020463946BDE85F
:1008B000F08D0020054346EAE0762C4337430A9842
:1008C0006305E40AA0EB08000022FD0A44EA47544D
:1008D0000A3002D500200146E9E7010510196941F7
:1008E000DDE9084500196941BDE8F04DA2E70000C7
:1008F000064C074D06E0E06840F0010394E807006D
:1009000098471034AC42F6D3FFF742FCAC500008D5
:10091000CC5000087047FEE7014800F06FB80000B7
:1009200004130020014800F069B80000641300209F
:1009300001681823CAB2103AB2FBF3F2054B6FF309
:100940000901032A9B5CC36500D9091D816508461E
:1009500070470000584D000810B5014600208B6913
:100960008A6A4FF0C07453B1B3F5005F15D072B10D
:10097000012A0CD0022A0AD0032A09D104E01AB1B4
:10098000012A06D0022A03D1C96AC90100D5012073
:1009900010BDC96AA142FAD010BD002AF7D0012AC1
:1009A000F2D0022AF3D0032AF3D010BD30B5046888
:1009B000256825F480252560046863608368402BE2
:1009C000036803D099600068C26030BD9A60006817
:1009D000C16030BD7047704790F83510022903D0D0
:1009E0008021416501207047052180F8351000689D
:1009F000016821F001010160002070472DE9F843F2
:100A000004464FF00009CDF8009063484FF41651AA
:100A1000A56D0068B0FBF1F72E6894F85C10082013
:100A200000FA01F131420FD021680A6852070BD554
:100A30000A6822F004020A6094F85C108840A860FA
:100A4000606D40F00100606594F85C104FF00108A3
:100A500008FA01F0304208D021684969090604D536
:100A6000A860606D40F00200606594F85C1004209E
:100A70008840304208D021680968890704D5A860F9
:100A8000606D40F00400606594F85C1010208840B0
:100A9000304218D021680968090714D5A860206879
:100AA0000168490304D50068000308D5A16C07E07C
:100AB0000168C90503D4016821F008010160216CB7
:100AC00009B12046884794F85C10202088403042C5
:100AD00031D021680968C9062DD5A86094F8350081
:100AE00005282068016806D0490347D5006800033F
:100AF0001DD4616C1CE021F0160101602068416981
:100B000021F080014161206C08B9A06C20B12068FF
:100B1000016821F00801016094F85C103F208840D2
:100B2000A86084F8349084F83580216D1FE0E16B73
:100B300009B120468847606D00282BD0606DC00742
:100B400014D0052084F835002068016821F00101E7
:100B500001600098401C0090B84203D820680068EB
:100B6000C007F6D184F8349084F83580E16C002910
:100B700010D001B02046BDE8F04308470168C90520
:100B8000D5D4016821F01001016084F8349084F814
:100B90003580CCE7BDE8F883340000202DE9F04132
:100BA000044600F083F906465CB1002584F8345011
:100BB000022084F835002068016821F001010160FD
:100BC0000DE00120BDE8F08100F070F9801B0528E0
:100BD00005D920206065032084F83500F2E72068FD
:100BE0000068C007F0D12268116820480140D4E9AC
:100BF00001031843D4E903363343184363691843A8
:100C0000A3691843E3691843236A18430843616AD8
:100C1000042903D1D4E90B13194308431060206859
:100C20004069666A20F0070130460E430127042818
:100C30000CD1A06A0643E06A40B12046FFF78CFE63
:100C400020B14020606584F83570BAE720684661BD
:100C50002046FFF76DFE94F85C203F2191408160B3
:100C6000656584F835700020ACE700003F8010F027
:100C70002DE9F0410446866D90F8340000250128E6
:100C80000DD0012084F8340094F835700020012F35
:100C900007D084F8340002252846BDE8F081022000
:100CA000FBE7022784F8357060652046FFF77EFE7B
:100CB00094F85C103F208840B0602068016841F0E3
:100CC000160101602068416941F080014161206C9A
:100CD00020B12068016841F00801016020680168C6
:100CE00041F001010160D7E72DE9F84FDFF87CB151
:100CF00000224FF001084FF0030A4FF00F090BF1EB
:100D0000040E00BF0B6808FA02F42340A3426ED120
:100D10004D68022D01D0122D0ED1D50800EB850CA7
:100D2000DCF820505607F70E09FA07F6B5430E69AE
:100D3000BE402E43CCF82060066855000F790AFAB1
:100D400005FC07F0030726EA0C06AF4037430760AF
:100D50004E68012E05D0022E03D0112E01D0122E86
:100D60000ED18668CF6826EA0C06AF40374387600D
:100D70004668A6430C79C4F300149440344344609D
:100D8000C6688C6826EA0C06AC403443C4604C68E4
:100D9000E40065D5364C256845F480452560246817
:100DA00022F0030504F480440094324C2E19D6F846
:100DB000084895072F0F09FA07F5AC432E4DA842B6
:100DC00001D1002524E02D4DA84201D101251FE0CD
:100DD0002B4DA84201D102251AE02A4DA84201D18B
:100DE000032515E0284DA84202D1042510E037E084
:100DF000264DA84201D105250AE0254DA84201D182
:100E0000062505E0234DA84201D1072500E008256D
:100E1000BD402543C6F80858DBF800405D464E68E3
:100E20009C43F60300D51C432C60DEF80040754659
:100E30004E689C43B60300D51C432C600B4D08350F
:100E40002C684E689C43F60200D51C432C60074D6D
:100E50000C352C684E689C43B60200D51C432C60B0
:100E6000521C102AFFF44EAFBDE8F88F003C014041
:100E700044380240003001400000024000040240BB
:100E800000080240000C0240001002400014024022
:100E900000180240001C02400069084000D00120F8
:100EA00070470AB1816170470904FBE70148806817
:100EB0007047000028000020024881680278114431
:100EC00081607047280000200B4810B5016841F48C
:100ED00000710160016841F480610160016841F4C2
:100EE00080710160032000F06FF8002000F006F828
:100EF00000F024F8002010BD003C024070B50D4DFC
:100F000004464FF47A712878B1FBF0F00A49096879
:100F1000B1FBF0F000F0E0FA48B9102C07D2002243
:100F20002146501E00F030F800206C6070BD01209A
:100F300070BD000028000020340000200A4808B5D9
:100F4000016841F480410160006800F48040009035
:100F50000548001F016841F080510160006800F001
:100F60008050009008BD000044380240002809DB92
:100F700000F01F02012191404009800000F1E020B3
:100F8000C0F8001170470000F0B40E4B1B680C460F
:100F9000C3F30223C3F10705042D00D90425191D4D
:100FA000072901D2002300E0DB1E012606FA05F125
:100FB000491E214099409E40761E16403143F0BCA8
:100FC00003F006B80CED00E0064900F007020868DF
:100FD0004FF6FF03184040EA0220034A104308601E
:100FE000704700000CED00E00000FA052DE9F04725
:100FF0000E46050065D0DFF81481D8F80000F7B27E
:1010000000F00F00B04207D288F80070D8F8000056
:1010100000F00F00B04254D128683D4C810712D532
:10102000400703D5206840F4E0502060287800078E
:1010300003D5206840F4604020602068A96820F053
:10104000F000084320602878C0072DD03049686838
:101050000839012812D0022813D0032811D00968BA
:10106000890700292DDA216821F00301014321605D
:10107000FFF71CFF814641F2883A0EE009688903B8
:10108000EFE709688901ECE7FFF710FFA0EB090122
:10109000514502D90320BDE8F0872068696800F057
:1010A0000C00B0EB810FEFD1D8F80010404601F0F2
:1010B0000F01B14207D90770006800F00F00B0427D
:1010C00001D00120E7E72878400705D52068E968C6
:1010D00020F4E050084320602878000706D52068F7
:1010E000296920F4604040EAC100206000F036F831
:1010F0002168084AC1F30311515CC84006490860E1
:101100000020FFF7FBFE0020C5E70000003C024086
:1011100008380240604D00083400002004480549AA
:1011200000680968044AC1F38221515CC8407047D5
:101130003400002008380240704D0008044805497A
:1011400000680968044AC1F34231515CC8407047E5
:101150003400002008380240704D0008154810B5D2
:10116000006810F00C02144813D04110042A0FD06C
:10117000082A0ED10F4C241F2268236802F03F0278
:101180005B0207D52068C0F38810A0FB010106E0D0
:10119000084610BD2168C1F38811A1FB000100239E
:1011A000FFF712F82168C1F30141491C4900B0FB67
:1011B000F1F010BD083802400024F4002DE9F84F8A
:1011C000050076D02878DFF8F8B2BE4CC00749D0C9
:1011D000DBF800105846C1F38101012908D00068EE
:1011E000C0F3810002280AD1201D0068400206D504
:1011F0002068800336D568680028E2D032E068684D
:10120000B0F5803F10D0B0F5A02F206810D020F4AA
:1012100080302060206820F4802020606868A0B1C1
:10122000FFF744FE06460CE0206840F48030F4E707
:1012300040F480202060F7E7FFF738FE801B642829
:1012400073D820688003F7D50CE0FFF72FFE064621
:1012500005E000BFFFF72AFE801B6428F0D8206855
:101260008003F7D42878DFF8608280074FF0000908
:101270003ED5DBF80010584611F00C0F09D000687D
:10128000C0F3810002280BD18D48001F0068400286
:1012900006D42068800715D5E868012809D111E037
:1012A000E868B8B10120C8F80000FFF7FFFD064666
:1012B00005E002E1FFF7FAFD801B0228C0D8206894
:1012C0008007F7D52068296920F0F80040EAC100BE
:1012D00020600DE0C8F80090FFF7E8FD064604E046
:1012E000FFF7E4FD801B02281FD820688007F7D491
:1012F0002878000722D5724E744869696C3671B13E
:1013000001210160FFF7D2FD074604E0FFF7CEFDA3
:10131000C01B022809D830688007F7D50EE0C0F856
:101320000090FFF7C3FD074605E083E0FFF7BEFD31
:10133000C01B02287ED830688007F7D42878400781
:1013400068D5DFF87CA100270AF1380ADAF8000036
:10135000C0000BD4DAF8001041F08051CAF8001038
:10136000DAF80000012700F080500090584E3068F5
:10137000C00510D4306840F480703060FFF796FDEF
:10138000009005E0FFF792FD0099401A022851D81D
:101390003068C005F6D54A4EA868683601280FD0D7
:1013A0000528306810D020F001003060306820F04F
:1013B00004003060A868B8B1FFF778FD00900FE036
:1013C000306840F00100F4E740F004003060F7E7D7
:1013D000FFF76CFD0099411A41F28830814264D8D0
:1013E00030688007F4D50EE0FFF760FD009007E05D
:1013F000FFF75CFD0099411A41F28830814254D8D0
:1014000030688007F4D42FB1DAF8001021F0805151
:10141000CAF80010A869C0B3DBF80010C1F381015D
:1014200002294AD00228484607D0C8F86000FFF7D2
:101430003DFD00E039E005463AE04746C8F8600067
:10144000FFF734FD064604E0FFF730FD801B02285D
:101450002BD820688001F7D4D5E907010843A96A91
:101460001C4A490802EB01416A6A41EA82110843B9
:1014700095F82C1040EA01611148001F016001201D
:101480003866FFF713FD054605E014E0FFF70EFD93
:10149000401B022809D820688001F7D50BE000BF67
:1014A000FFF704FD401B022802D90320BDE8F88F96
:1014B00020688001F4D40020F8E70120F6E700005E
:1014C000083802400038024000004742800E474280
:1014D000007000400000FFFF10B5401EB0F1807F9B
:1014E00001D3012010BD4FF0E02460610F2160178F
:1014F00002F06EFD0020A06107202061002010BDD9
:101500007047704770B590F83C20012A19D001242B
:1015100000F83C4F0222427050F83C3C5A689D68EB
:1015200022F070060A684968324325F08005294395
:101530005A6050F83C2C91604470002101700846BC
:1015400070BD022070BD10B5040003D094F83D00BA
:1015500010B107E0012010BD002084F83C002046B7
:1015600000F00CF8022084F83D00211D206800F0F6
:10157000B1FE012084F83D00002010BD08B50168CF
:101580001048B1F1804F14D00F4A914219D101682F
:1015900041F0020101600068002200F002000090AA
:1015A00011461D20FFF7F0FCBDE808401D20FFF7A5
:1015B000DDBC016841F001010160006800F001003C
:1015C000009008BD4038024000040040022180F82D
:1015D0003D1001688A6802F00702062A03D00A68F3
:1015E00042F001020A60012180F83D10002070479E
:1015F00070B5044690F83C00012817D0012584F806
:101600003C50022084F83D002068826822F0770276
:1016100022F47F4282600868502830D00DDC2028F8
:101620004DD005DC98B310283BD148E0022070BDB6
:10163000302844D0402834D139E0602828D07028A0
:1016400006D0B0F5805F2CD0B0F5005F29D10AE05C
:10165000CB68D1E90121206800F0ADFE20688168E7
:1016600041F0770109E0CB68D1E90121206800F061
:10167000A2FE2068816841F48041816011E0CA685F
:101680004968206800F06CFF5021206807E016E0F0
:10169000CA684968206800F074FF6021206800F083
:1016A00094FE84F83D50002084F83C0070BDCA6868
:1016B0004968206800F054FF40212068EFE7226865
:1016C00001461046EBE72DE9F0410D46040003D03A
:1016D00094F83D0018B108E00120BDE8F081002039
:1016E00084F83C00204600F03BF8022084F83D00DE
:1016F0002068816844F2070291438160211D2068BF
:1017000000F0E8FD226890689169166A2B68AF695D
:10171000034340F20330814341EA0721A868EF699F
:1017200008434FF6FC418843E96840EA072001433B
:1017300028692F6A000140EA0730084369686D692B
:1017400026F0AA0646EA05152943936022689061AF
:1017500020680162012084F83D000020BDE7000000
:1017600030B587B0044614216846FEF777FD294856
:101770002468274D0022274910380223AC4220D18B
:101780000C6844F004040C60096801F00401059140
:10179000016841F0020101600068694600F0020042
:1017A0000590C0200090CDE901321B48CDE903230C
:1017B000FFF79AFA002202211E20FFF7E5FB1E2008
:1017C00022E0164DAC4221D10C6844F008040C60B4
:1017D000096801F008010591016841F0010101600B
:1017E0000068694600F00100059003200090CDE9F3
:1017F00001320B48CDE90323FFF776FA00220221DC
:101800003220FFF7C1FB3220FFF7B0FB07B030BD3D
:10181000000800404038024000040240000C004034
:101820000000024010B50446006891B1042904D0BC
:101830000122002100F0B2FD206801225FF00401C6
:1018400000F0ACFD2068016841F00101016000205A
:1018500010BD01220021F3E7704770B5044600680F
:1018600001694FF00005C943890715D4C168C94310
:10187000890711D4E91E0161012020772068806961
:101880008007204602D0FFF7E7FF04E000F0C0F831
:10189000204600F042F9257720680169C9434907CD
:1018A00017D4C168C943490713D46FF0040101611B
:1018B000022020772068806910F4407F204602D003
:1018C000FFF7CAFF04E000F0A3F8204600F025F976
:1018D000257720680169C943090716D4C168C9433F
:1018E000090712D46FF008010161042020772068F5
:1018F000C0698007204602D0FFF7AEFF04E000F089
:1019000087F8204600F009F9257720680169C94366
:10191000C90617D4C168C943C90613D46FF01001B2
:101920000161082020772068C06910F4407F2046BC
:1019300002D0FFF791FF04E000F06AF8204600F0C3
:10194000ECF8257720680169C943C90708D1C16847
:10195000C943C90704D1891E0161204600F000F97E
:1019600020680169C943090609D4C168C943090649
:1019700005D46FF0800101612046FFF7C1FD2068AA
:101980000169C943490609D4C168C943490605D458
:101990006FF040010161204600F0E3F82068016922
:1019A000C94389060BD4C168C943890607D46FF0BF
:1019B000200101612046BDE87040FFF7A2BD70BD67
:1019C00010B586B0044614216846FEF747FC0D4961
:1019D0002068884214D10C480021026842F00102BC
:1019E0000260006800F001000590C0200090022015
:1019F000CDE90101CDE9031069460448FFF774F908
:101A000006B010BD00040040303802400000024023
:101A1000704770B5044690F83C000D4601280DD083
:101A2000012684F83C60022084F83D0042B1042A7B
:101A300018D0082A2AD00C2A4DD139E0022070BDD6
:101A4000206800F0CBFC2068816941F008018161C9
:101A50002068816921F004018161206881692A6917
:101A6000114311E0206800F0E9FC2068816941F42D
:101A7000006181612068816921F480618161206851
:101A800081692A6941EA0221816124E0206800F02D
:101A90000BFD2068C16941F00801C1612068C1697E
:101AA00021F00401C1612068C1692A69114311E074
:101AB000206800F02DFD2068C16941F40061C1611A
:101AC0002068C16921F48061C1612068C1692A6907
:101AD00041EA0221C16184F83D60002084F83C00A5
:101AE00070BD10B5040003D094F83D0010B107E0BC
:101AF000012010BD002084F83C00204600F00CF8C6
:101B0000022084F83D00211D206800F0E3FB012045
:101B100084F83D00002010BD7047704710B50446A2
:101B20000068012200F03AFC0B492068884202D08C
:101B30000A49884203D1416C41F400414164206864
:101B4000816801F00701062903D0016841F0010115
:101B50000160002010BD00000000014000040140B1
:101B6000704770477047000070B5026804461068FF
:101B7000D168536910F00F0F51D003F0010501F443
:101B8000907635435DD0C20705D0CA0503D5E26B18
:101B900042F00102E263420705D5DA0703D0E26BA7
:101BA00042F00202E263820705D5DA0703D0E26B56
:101BB00042F00402E263020705D5DA0703D0E26BC4
:101BC00042F00802E263E26B002A34D0800604D5BA
:101BD000880602D5204600F069FD20684069E16B67
:101BE000C0F3801001F008010143204624D000F02A
:101BF00046FD2068416949061AD5416921F0400136
:101C00004161606BA0B11B490165606BFEF7E4FEAA
:101C1000002810D0606B016DBDE870400847830656
:101C20000FD58B060DD52046BDE8704000F03EBDB7
:101C30002046FFF797FF70BDFFF794FF0020E06399
:101C400070BD030606D50B0604D52046BDE87040DE
:101C500000F0CEBE4006F3D54806F1D5D168204647
:101C600021F04001D160202184F8391000F042F9C0
:101C700070BD0000A725000870B5040004D094F8DA
:101C80003900002510B106E0012070BD84F83850FD
:101C9000204600F023F8242084F839002068C16829
:101CA00021F40051C160204600F04CFD206801691C
:101CB00021F4904101612068416921F02A014161CC
:101CC0002068C16841F40051C160E563202084F8B8
:101CD000390084F83A00002070BD00002DE9F04181
:101CE00086B0064614216846FEF7B8FA32493068D5
:101CF00088425DD131480025016841F01001016042
:101D0000006800F0100005902C481438016841F07C
:101D1000010101600068012100F0010005904FF40D
:101D2000C06000900220CDE90101039007200490DB
:101D300069462348FEF7D8FF234C22484FF000673E
:101D40002060C4E901754FF48068C4E90358801528
:101D50006561C4E906504FF44030C4E908052046E7
:101D6000FEF71CFF08B1FEF736FE7463A663164C3F
:101D7000144860347830E4E802074020A4E82101E8
:101D8000C00244F81459A561C4E907500E486562C1
:101D90006030FEF703FF08B1FEF71DFE346300223A
:101DA00011462520A663FFF7EFF82520FFF7DEF8A0
:101DB00006B0BDE8F0810000001001404438024048
:101DC000000002404064024004130020F8B50446BD
:101DD00090F83A0020283CD1C1B3BAB394F8380047
:101DE000012836D0012084F83800A162A2850025A0
:101DF000E563222084F83A00636B1748D863636B6D
:101E000016481864636B1648D864606B1346056502
:101E10000846666B216802463046091DFEF728FF1A
:101E2000206801684168009184F83850C16841F425
:101E30008071C1602068416941F001014161206801
:101E4000416941F0400141610020F8BDFFE70120F8
:101E5000FBE70220F9E70000012600083D26000804
:101E6000B7250008014801F02FB80000C401002088
:101E70007047000070B5044690F83900202830D132
:101E800069B362B394F8380001282AD0012084F89D
:101E900038002162A284E2840025E563212084F8D1
:101EA0003900236B1048D863236B10481864236BE8
:101EB0000F48D864206B134605652668206B321DD9
:101EC000FEF7D6FE21686FF04000086084F83850B5
:101ED0002068416941F080014161002070BD01200E
:101EE00070BD022070BD000047260008752600085E
:101EF000B7250008014800F0F5BF0000C40100202C
:101F00007047FEE70D4808B5016841F480010160A3
:101F10000068002200F48000009011463A20FFF78C
:101F200033F83A20FFF722F8002211464620FFF747
:101F30002BF8BDE808404620FFF718B830380240BB
:101F4000194808B5016841F080010160016801F09D
:101F500080010091016841F001010160016801F018
:101F600001010091016841F002010160016801F086
:101F700002010091016841F040010160016801F037
:101F800040010091016841F004010160016801F025
:101F900004010091016841F010010160006800F047
:101FA0001000009008BD00003038024010B586B027
:101FB00000241648009401940294039404944FF072
:101FC0008041059401604AF20F41C0E90114611E8D
:101FD000C0E903148461FFF7B6FA08B1FEF7FBFC11
:101FE0004FF48050009069460848FFF701FB08B1A4
:101FF000FEF7F1FC049404A904480594FFF782FA63
:10200000002801D0FEF7E7FC06B010BDC411002087
:1020100010B58EB000240794089409940A940B9488
:102020001C2168460C94FEF719F9234821490160E8
:10203000A221C0E9011440F2CF71C0E9031480214C
:102040008161FFF780FA08B1FEF7C5FC4FF48050BC
:10205000079007A91848FFF7CBFA08B1FEF7BBFCB9
:102060001548FFF73EFD08B1FEF7B5FC0B940BA930
:1020700011480C94FFF746FA08B1FEF7ACFC70204B
:10208000CDE90004022002900022694604940A4827
:10209000FFF7BFFC08B1FEF79EFC04226946064824
:1020A000FFF7B7FC08B1FEF796FC0348FFF788FC82
:1020B0000EB010BD000400400412002010B58CB01A
:1020C00024216846FEF7CAF80024164809941449EA
:1020D0000A94C0E900144FF6FF11C0E902410461FF
:1020E00084610320CDE900040120CDE902040494B9
:1020F000CDE90540079469460A480894FFF7E3FADA
:1021000008B1FEF768FC099409A906480A94FFF78C
:10211000F9F9002801D0FEF75EFC0CB010BD0000FC
:10212000000800404412002010B58CB024216846FD
:10213000FEF794F800241548099413490A94C0E95D
:1021400000144FF6FF11C0E90241046184610120CF
:10215000CDE90004CDE902040494CDE905400794DB
:1021600069460A480894FFF7AEFA08B1FEF733FC57
:10217000099409A905480A94FFF7C4F9002801D079
:10218000FEF729FC0CB010BD000C004084120020AA
:102190000C4810B50A4901604FF4E131416000215B
:1021A00081600C22C160C0E904128161C161FFF746
:1021B00063FD002803D0BDE81040FEF70CBC10BD45
:1021C00000100140C4120020FEE7704770477047BE
:1021D000FEF772BE30B593B030216846FEF73EF888
:1021E00014210CA8FEF73AF81A480025016841F0BE
:1021F00080510160006800F080501190164801681D
:1022000041F4804101600068022400F48040119094
:1022100001200090000401908001CDE906400820D3
:1022200008904FF4A870CDE9090404200B9068468B
:10223000FEF7C4FF0CA90F2081E831004FF4A05035
:102240000F90E002109005210CA8FEF7CFFE13B00E
:1022500030BD000040380240007000401048016866
:1022600041F4700101600F48016841F00101016013
:102270000C4A00210832116002680B4B1A400260C0
:10228000031D0A4A1A60026822F48022026005488F
:102290000C30016002495806803908607047000020
:1022A00088ED00E000380240FFFFF6FE1030002409
:1022B0000148FFF7D2BA0000041200200148FFF7DE
:1022C000CCBA0000441200200148FFF7C6BA000053
:1022D00084120020F0B50268254C264D264E274F6B
:1022E000274B4FF0804CA04209D0604507D0A84250
:1022F00005D0B04203D0B84201D0984204D122F0B8
:10230000700E4A6842EA0E02A0421BD0604519D006
:10231000A84217D0B04215D0B84213D0984211D07D
:10232000184DA8420ED0184DA8420BD0174DA84208
:1023300008D0174DA84205D0164DA84202D0164D20
:10234000A84203D122F44075CA682A434D6922F09D
:1023500080022A4302608A68C2620A688262A042DE
:1023600001D0984201D10969016301214161F0BDA9
:10237000000001400004004000080040000C004044
:102380000004014000400140004401400048014079
:1023900000180040001C00400020004010B501F073
:1023A0001F030121046A99408C430462016A9A4028
:1023B0001143016210BD10B5846842EA032224F47F
:1023C0007F440A432243826010BD826822F070027B
:1023D0000A4342F00701816070470000F0B5026ACD
:1023E00022F001020262036A42688469124E24F0FC
:1023F00073050C682C4323F002058B682B430D4DAD
:10240000A84201D0B04205D123F00807CB683B4376
:1024100023F00403A84201D0B04205D14D6922F453
:10242000407215438A692A43426084614968416366
:102430000362F0BD0000014000040140F0B5026AF3
:1024400022F010020262026A436884690D6824F473
:10245000E64444EA05248D6822F0200242EA05128F
:102460000F4D104EA84201D0B04206D1CF6822F0E5
:10247000800242EA071222F04002A84201D0B04294
:1024800007D14D6923F4406343EA85038D6943EA2C
:10249000850343608461496881630262F0BD000086
:1024A0000000014000040140F0B5026A22F480728D
:1024B0000262026A4368C46922F4007224F0730560
:1024C0000C68124E2C438D6842EA05220E4DA8423C
:1024D00001D0B04206D1CF6822F4006242EA07225E
:1024E00022F48062A84201D0B04207D14D6923F4A2
:1024F000405343EA05138D6943EA05134360C46101
:102500004968C1630262F0BD00000140000401405F
:1025100030B5026A22F480520262046A4268C369DA
:102520000D6823F4E64343EA05238D6824F4005440
:1025300044EA0534084DA84202D0084DA84204D10F
:102540004D6922F4804242EA85124260C3614968C3
:102550000164046230BD000000000140000401403D
:1025600010B5036A046A24F001040462846924F04B
:10257000F00444EA021423F00A020A43846102626E
:1025800010BD10B5036A23F0100303628369046A67
:1025900023F4704343EA023224F0A00343EA01111A
:1025A0008261016210BD10B5806B0021C185C184BC
:1025B000FFF7D8FA10BD70B5846B2068406994F8B5
:1025C0003910C0F3C0100025212904D118B1E584C9
:1025D000204600F062F82068406994F83A10C0F391
:1025E0008010222904D118B1E585204600F047F873
:1025F000E06B40F01000E0632046FFF7B3FA70BDD7
:1026000010B50146806B09680968C90513D400211B
:10261000C1850168CA6822F48072CA6001684A698B
:1026200022F001024A6101684A6922F040024A61CF
:10263000202180F83A10FFF715FC10BD10B5806B13
:10264000FFF716FC10BD10B50146806B09680968DC
:10265000C9050CD40021C18401684A6922F08002B6
:102660004A610068C16841F04001C16010BDFFF7D8
:1026700041FC10BD10B5806BFFF742FC10BD016836
:10268000CA6822F49072CA6001684A6922F00102A5
:102690004A61202180F83A1070470168CA6822F028
:1026A000C002CA60202180F83910704710B590F838
:1026B0003A10222901D0022010BD8168B1F5805F57
:1026C00011D00169002901681FD0496801F07F031A
:1026D000816A4A1C82620B70C18D491E0904090C73
:1026E000C18518D02BE00269816A002A026852680D
:1026F00005D0D2B20A80816A491C8162ECE7C2F33C
:1027000008020A80816A891CF7E74A68816A4B1CC3
:1027100083620A70E0E70168CA6822F02002CA609A
:102720000168CA6822F48072CA6001684A6922F0AE
:1027300001024A61202180F83A10FFF793FB002044
:1027400010BD00002DE9F041044600680169E2680F
:1027500021F44051114301612169A068E2690843F5
:102760006169114322680843D16849F20C639943B7
:102770000143D16020684169A26921F4407111438D
:102780004161E2696425B2F5004F97489749226894
:102790004FF032083FD08A4201D082427CD1FEF70E
:1027A000CDFC00EBC00101EB001061688900B0FBBB
:1027B000F1F6FEF7C3FC00EBC00101EB001061680D
:1027C0008900B0FBF1F0B0FBF5F06FF01801484361
:1027D00006EB800108EB0110B0FBF5F000F0F0060D
:1027E000FEF7ACFC00EBC00101EB00106168890052
:1027F000B0FBF1F0B0FBF5F006EB0016FEF79EFC27
:1028000000EBC00101EB001061688900B0FBF1F73B
:10281000FEF794FCD2E08A4201D082423DD1FEF71D
:102820008DFC00EBC00101EB001061684900B0FBBA
:10283000F1F0B0FBF5F00601FEF780FC00EBC00103
:1028400001EB001061684900B0FBF1F7FEF776FC80
:1028500000EBC00101EB001061684900B0FBF1F032
:10286000B0FBF5F06FF01801484307EB800108EB6F
:10287000C100B0FBF5F000F0F80006EB4006FEF7F3
:102880005DFC00EBC00101EB001061684900B0FB8A
:10289000F1F7FEF753FC3CE055E0FEF73FFC00EBA0
:1028A000C00101EB001061684900B0FBF1F0B0FB22
:1028B000F5F00601FEF732FC00EBC00101EB001061
:1028C00061684900B0FBF1F7FEF728FC00EBC0019E
:1028D00001EB001061684900B0FBF1F0B0FBF5F0CE
:1028E0006FF01801484307EB800108EBC100B0FB13
:1028F000F5F000F0F80006EB4006FEF70FFC00EBE9
:10290000C00101EB001061684900B0FBF1F7FEF770
:1029100005FC00EBC00101EB001061684900B0FB51
:10292000F1F0B0FBF5F06FF01801484307EB8001C0
:1029300008EBC100B0FBF5F000F00700216830445F
:102940008860BDE8F081FEF7E9FB00EBC00101EB18
:10295000001061688900B0FBF1F6FEF7DFFB00EBC9
:10296000C00101EB001061688900B0FBF1F0B0FB21
:10297000F5F06FF01801484306EB800108EB0110F9
:10298000B0FBF5F000F0F006FEF7C8FB00EBC0016D
:1029900001EB001061688900B0FBF1F0B0FBF5F0CD
:1029A00006EB0016FEF7BAFB00EBC00101EB0010CE
:1029B00061688900B0FBF1F7FEF7B0FB00EBC001E6
:1029C00001EB001061688900B0FBF1F0B0FBF5F09D
:1029D0006FF01801484307EB800108EB0110B0FBD2
:1029E000F5F000F00F00A9E70014014000100140CD
:1029F00090F83910212901D0022070478168B1F583
:102A0000805F016A0BD04A1C02620268097851603B
:102A1000C18C491E0904090CC1840ED017E0098835
:102A20000268C1F30801516001690029016A02D0FE
:102A3000491C0162ECE7891CFBE70168CA6822F0C7
:102A40008002CA600068C16841F04001C160002096
:102A5000704700000148FFF787B80000C41200204B
:102A6000FEE7000000B58DB00F4800F086FE02467C
:102A70000EA1684601F098FA0B486A46F030012131
:102A800001F02AFF0848203000F077FE02460CA132
:102A9000684601F089FA04486A46F030012101F0E5
:102AA0001BFF0DB000BD0000D0000020456E636F1D
:102AB000646572204C6566743A20256C64000000E1
:102AC000456E636F6465722052696768743A2025A9
:102AD0006C64000010B5184C607880B1174800F0A5
:102AE000D7FC1649164891ED010A80ED020A91EDD6
:102AF000020A80ED030A91ED030A80ED040AA07832
:102B000040B10E4800F030FC0C49103101F6DC7089
:102B100000F0BCFAE07840B1084800F001FD074938
:102B2000203101F6DC7000F0B1FA0549BDE8104033
:102B300001F1B40000F0DCBB000000202401002003
:102B4000FC10002010B5044690ED021AD0ED030AE7
:102B500090ED010A074800F035FB94ED021AD4ED20
:102B6000030A94ED010A0348BDE81040303000F03C
:102B700029BB00005000002070B505468068FDF7B5
:102B80006BFD064CC4E90801286AFDF765FDC4E940
:102B90000601034800F0A0F9606070BD000000204D
:102BA000C401002010B5124800F0B7FB114CA07012
:102BB0000F4800F04EFC60700D4800F035FCE070EE
:102BC000607820B90A480CA19C3001F009FFA07878
:102BD00020B907480FA19C3001F002FFE07820B92E
:102BE000034812A19C3001F0FBFE0020207010BDB4
:102BF0002401002000000020416363656C65726F52
:102C00006D65746572204E4F5420464F554E4421D9
:102C1000000000004779726F73636F7065204E4F3C
:102C20005420464F554E4421000000004D61676E10
:102C300065746F6D65746572204E4F5420464F5514
:102C40004E44210030B5334C2DED028B85B094ED10
:102C5000060B51EC100BFDF743FD94ED080B08EE4D
:102C6000100A51EC100BFDF73BFDB0EE481A9FED3A
:102C70002A8A00EE100A2949F0EE480A684600F058
:102C8000EFF82648403800F085FD044623482038F8
:102C900000F080FD05469DED000A00EE904A1F48B9
:102CA000B8EEC00AF8EEE00AC03800F08FFA51EC36
:102CB000100BFDF7B2FC01461848603800F02CFDFF
:102CC0009DED010A00EE905A1448B8EEC00AF8EEE5
:102CD000E00A903800F07AFA51EC100BFDF79DFCF9
:102CE00001460E48503800F017FD2A4621460B4891
:102CF00000F088F80A48014680ED010A80ED028A5A
:102D000080ED031A6C3000F0F3FA05B0BDEC028BD5
:102D100030BD000000000020000000001001002075
:102D20003011002005489FED030B80ED080B80ED6E
:102D3000060B7047000000000000000000000020AB
:102D4000DFED2F1A70B520EE212A20EEA10A61EEE8
:102D5000210AD1ED021AB6EE001AD1ED032A61EE76
:102D6000811A42EE811A91ED041A09684A4261EE15
:102D7000A02AC0EE011AC2EE010A82EE810A30EEEC
:102D8000E12A32EE401ABDEEC11A11EE103A93421A
:102D900001DA134602E08B4200DD0B4630EEA11A49
:102DA0001C4671EE000AFDEEE00A10EE903A9342E6
:102DB00001DA134602E08B4200DD0B4671EE400A59
:102DC0001D46FDEEE00A10EE903A934201DA1346FA
:102DD00002E08B4200DD0B4632EE000A1E46BDEEDD
:102DE000C00A10EE103A934201DA114602E08B421B
:102DF00000DC1946C0E90261C0E9004570BD000071
:102E0000000070428B18B6EE001A511A01EE901AAB
:102E1000DFED112A00EE103AF8EEE11A90ED042AE7
:102E2000B8EEC00A21EE813A60EE010AC3EE221A22
:102E300090ED033A80EEA20AD0ED022ADFED070AF8
:102E400062EE211A62EE812A43EE012A81EEA21A75
:102E500022EE000A704700000000704200000000EF
:102E60001FB50446DFED040A6846FFF769FF9DE8D9
:102E70000F0084E80F001FBD0000000070B504467D
:102E80002DED028BF0EE418A80ED010AB0EE608AF2
:102E90000D4610EE100AFDF7DFFB9FED090B53EC1A
:102EA000102BFDF7BBFAFDF71BFC2560206184EDBC
:102EB000028AC4ED038A2046BDEC028B70BD00007F
:102EC0004AD8124DFB210940436800F108014FF434
:102ED00000721846FEF77ABF00680068406A400832
:102EE0007047000070B54368044693F83900202805
:102EF00022D1124D287800281ED101202870D4F844
:102F00000C1AD4F8100A814214D0884201D2091A4E
:102F100001E0C0F500618EB204F503710144324650
:102F20001846FEF7A7FFB4F8100A3044C0F30A00B1
:102F3000C4F8100A0020287070BD00004C0000206A
:102F400070B506460C46001D00F010F805466119E4
:102F500006F1140000F00AF8284470BD00487047DC
:102F6000B44E000800487047D54E000870B5CB78C5
:102F7000021D5B0943600C7943EAC40343604C794A
:102F800043EAC42343608C7904F00F0443EAC44548
:102F900045608B79CC791B0904F07F0453EA041453
:102FA0004FF0804303D003EBC45425431560CA7926
:102FB00012F0800F05D090ED010AB1EE400A80EDCD
:102FC000010ACC7A00F10802640984600D7B44EAAE
:102FD000C50484604D7B44EAC52484608D7B05F084
:102FE0000F0544EAC54484608D7BCE7B2D0906F035
:102FF0007F0655EA061503D003EBC5552C43146034
:10300000CA7B12F0800F05D090ED020AB1EE400AA3
:1030100080ED020ACC7C00F10C026409C4600D7DD5
:1030200044EAC504C4604D7D44EAC524C4608D7D76
:1030300005F00F0544EAC544C4608D7DCE7D2D09A1
:1030400006F07F0655EA061503D003EBC5531C4373
:103050001460C97D11F0800F4FF0180105D090ED7C
:10306000030AB1EE400A80ED030A084670BD000075
:1030700000487047E94E0008004870470A4F0008B2
:103080000149016070470000B84D000891ED010A48
:1030900080ED010A91ED020A80ED020A91ED030A2A
:1030A00080ED030A70472DE9F04105460F7800795D
:1030B0000E46B84204D2B900E86801F0C5FAE860EB
:1030C000042400202F71804611E03119325D4B78C5
:1030D00042EA03228B78C97842EA034242EA01615C
:1030E000A960EA6842F82010401CC0B2241D29796A
:1030F0008142EAD8375D287C641CB84204D2B9000A
:10310000A86901F0A1FAA86100202F74E41C12E064
:103110003119325D4B7842EA03228B78C97842EA52
:10312000034242EA01616961D5E9052141F82020A5
:10313000401CC0B2241D297C8142E9D8375D287F1C
:10314000641CB84204D2B900686A01F07DFA686272
:10315000E01C2F77002218E03118001D0C68034690
:103160000146204404E0745C7718491C07F8014CC0
:103170008842F8D88419F11804F8018C491E296294
:103180006B6A43F82210521CD2B2297F9142E3D8D5
:10319000BDE8F08100487047204F000800487047A4
:1031A0003C4D000800487047414F000800487047F8
:1031B000624F000800487047754F0008004870478C
:1031C000964F0008083080EC030A704710B504469B
:1031D0002DED068BB0EE409A39EE600A10EE100A23
:1031E000FDF73AFA41EC180B94ED060B53EC182B53
:1031F00051EC100BFDF76BF8C4E9060194ED0A0BD6
:1032000051EC180B53EC102BFDF702F99FED2CAB92
:10321000B5EEC09AC4E90801F1EE10FA08D153ECFA
:103220001A2B51EC180BFDF72BFA01D184ED06ABEC
:103230002069FDF711FA94ED081B53EC112BFDF7F3
:10324000EDF841EC190BE068FDF706FA94ED061B6A
:1032500053EC112BFDF7E2F841EC1A0BA068FDF7D7
:10326000FBF953EC182BFDF7D9F853EC1A2BFDF7AB
:103270002EF853EC192BFDF72AF841EC190B84EDCD
:103280000A8B2068FDF7E8F953EC192BFDF710FACB
:1032900001D2206808E06068FDF7DEF953EC192BD5
:1032A000FDF7EEF907D26068FDF7D6F941EC100B97
:1032B000BDEC068B10BDB0EE490AF0EE690AF7E7E7
:1032C000000000000000000080EC050A70470000CC
:1032D00010B5064B0A68B2FBF3F403FB1424B2FBEF
:1032E000F3F203681A4402600C6010BD00CA9A3BF6
:1032F0000A46D0E9021003681B68184770B54430CD
:103300001546044600F022FC2946204600F03EFC0B
:103310002046BDE8704000F0FEBB10B50446002218
:10332000682100F085F9C0F34500342801D0002061
:1033300010BD80233E226821204600F061F81B2347
:1033400016226821204600F05BF81323152268211D
:10335000204600F055F803233E226821204600F065
:103360004FF8012010BD000070B504462DED028B12
:1033700000251D226821FFF7C1FF04F14400062249
:103380006821064600F0C4FB07E0304600F0E1FB90
:1033900061196D1C81F83000EDB2304600F00AFC76
:1033A0000028F2D1608E40BA00B2FDF718F99FED07
:1033B000128B53EC182BFDF731F8FDF791F9606192
:1033C000208E40BA00B2FDF70AF953EC182BFDF736
:1033D00025F8FDF785F9A061A08E40BA00B2FDF78F
:1033E000FEF853EC182BFDF719F8FDF779F9E061B9
:1033F000BDEC028B70BD0000578B6E247BE4533F05
:1034000070B544301C461546064600F09FFB294621
:10341000304600F0BBFB2146304600F0B7FB30469B
:10342000BDE8704000F077BB10B5044620230122B0
:103430001E21FFF7E5FF182300221E212046FFF77B
:10344000DFFF012302221E212046FFF7D9FF0120C2
:1034500010BD10B504460022532100F0E9F8E5281C
:1034600001D0002010BD08232D2253212046FFF754
:10347000C7FF0923312253212046FFF7C1FF09234B
:103480002C2253212046FFF7BBFF012010BD000076
:1034900070B504462DED028B002532225321FFF733
:1034A0002DFF04F1440006225321064600F030FBB4
:1034B00007E0304600F04DFB61196D1C81F83600C5
:1034C000EDB2304600F076FB0028F2D1B4F93600B8
:1034D000FDF785F89FED108B53EC182BFDF710F8D6
:1034E000FDF7FEF86060B4F93800FDF778F853ECAA
:1034F000182BFDF705F8FDF7F3F8A060B4F93A00D2
:10350000FDF76DF853EC182BFCF7FAFFFDF7E8F820
:10351000E060BDEC028B70BD9A99999999993940F8
:1035200070B504462DED048B002503221E21FFF704
:10353000E5FE04F1440006221E21064600F0E8FAEA
:1035400007E0304600F005FB61196D1C81F83C0076
:10355000EDB2304600F02EFB0028F2D114F83C0FFB
:103560000002617800B20843FDF739F89FED299B0E
:1035700053EC192BFCF752FFFDF7B2F808EE900A56
:1035800044ED068A20796179000200B20843FDF714
:1035900026F853EC192BFCF741FFFDF7A1F808EED4
:1035A000100A04ED058AA078E178000200B2084311
:1035B000FDF715F853EC192BFCF730FFFDF790F8E9
:1035C00000EE100AF5EEC08A04ED040A3C3CF1EE70
:1035D00010FA03D1DFED110AC4ED090AB5EEC08A75
:1035E000F1EE10FA03D1DFED0E0AC4ED0A0AB5EED2
:1035F000C00AF1EE10FA03D19FED0A0A84ED0B0A1E
:103600002046BDEC048B01230222BDE870401E2140
:10361000FFF7F6BE713D0AD7A370ED3F00C4DEC6CA
:10362000001CDDC600F8DDC60021443000F06CB996
:1036300070B5443015460C46064600F087FA294618
:10364000304600F0A3FA304600F065FA0122214628
:10365000304600F05DFA3046BDE8704000F079BABF
:1036600010B5443000F036FA443810BDF0B585B0DE
:10367000044614216846FCF7F1FD20792149012513
:10368000032631F81000CDE90005694603961E486F
:10369000FDF72AFB1B4920791A4A091D083231F827
:1036A000101032F81000194F0143CDE900150396B0
:1036B00069463846FDF718FB0122B1033846FDF78D
:1036C000F0FB0820CDE90005CDE90256104D694612
:1036D0002846FDF709FB012208212846FDF7E1FBFA
:1036E000084920790C3131F810000090022003962F
:1036F00001902079074951F820006946FDF7F4FA56
:1037000005B0F0BD784D00080008024000100240EE
:10371000001802403800002070B50C1E0546114903
:10372000114B007903DD31F81010012203E005DAB6
:1037300031F8101000221846FDF7B3FB28790B4A28
:10374000614230B9002C01DB204600E008461368D6
:1037500058632879012804D1002C00DA0C4610683F
:10376000846370BD784D00080010024004120020F0
:103770000171C0E902237047704782886F21C2F14E
:103780006F0212B2C2808180016811440160084654
:103790007047000070B504462DED048BFFF7EDFF78
:1037A0000546174840680068406A4608A069301A14
:1037B000FCF726FF9FED131B53EC112BFCF7A0FE2B
:1037C00041EC190BE069281AFCF709FFC4E906650A
:1037D00041EC180B6069FCF713FF41EC100B51EC46
:1037E000180B53EC102BFCF78BFE53EC192BFCF74A
:1037F00087FEBDEC048BBDE87040FCF70EBF0000F7
:10380000C001002000000000004CED4010B5029CFB
:103810000172002140F80C1B1CC020F8141C20F879
:10382000121C183810BD70B50546002100F0FAF8DA
:103830000121284600F00AF90121284600F0F2F89B
:10384000284600F027F980F001040021284600F006
:10385000E9F8204670BD10B50446002100F0F6F8E6
:103860000121204600F0DEF82046BDE8104000218E
:1038700000F0D8B870B506460025012100F0E6F842
:1038800000240121304600F0CDF8304600F002F966
:10389000C4F1070188402843C5B20021304600F03A
:1038A000C1F8641C082CECDB284670BD10B504463A
:1038B000012100F0CBF80121204600F0B3F82046AA
:1038C000BDE81040002100F0ADB82DE9F041002422
:1038D0000E4607460125C4F1070105FA01F0304202
:1038E00001D0012100E00021384600F0AFF80121AD
:1038F000384600F097F80021384600F093F8641C31
:10390000082CE8DBBDE8F081F0B587B0054614214E
:103910006846FCF7A3FC17480024016841F0020147
:1039200001600068112600F0020005904FF400705D
:10393000CDE90006104F694603943846FDF7D4F9E7
:10394000B815CDE90006694603943846FDF7CCF971
:1039500085F8524085F8534085F8304085F831406D
:103960000121284600F05EF80121284600F06EF89B
:1039700007B0F0BD303802400004024070B5044684
:103980000020608120794006050EE088012801D1E1
:1039900045F00105204600F089F829462046FFF74A
:1039A00094FF2046FFF73FFF20B1E088012819D09F
:1039B00000252AE0204600F05DF8022070BD204678
:1039C000FFF758FF02466089E368411C61811A5481
:1039D000608921898842204602D2FFF73CFF01E03E
:1039E000FFF764FF608921898842E8D310E0E0682E
:1039F000415D2046FFF769FF2046FFF714FF60B1E5
:103A00006089401C6D1C6081EDB22089A842EED80F
:103A1000204600F02FF8002070BD204600F02AF864
:103A2000032070BD002290F8540001E000BF521C3A
:103A30009042FBDC04484FF4807309B1012200E09E
:103A400000221946FDF72DBA00040240002290F82A
:103A5000540001E000BF521C9042FBDC04484FF4CC
:103A6000007309B1012200E000221946FDF719BADE
:103A70000004024010B504460021FFF7E7FF0121D2
:103A80002046FFF7CFFF2046BDE810400121FFF799
:103A9000DDBF000010B54FF400710348FDF7FCF9DD
:103AA000002800D0012010BD0004024010B50446DB
:103AB0000021FFF7CBFF2046BDE810400021FFF7B3
:103AC000B1BF0000024A026080F854107047000045
:103AD000904D0008704710B50446202A00DD2022D2
:103AE000A1800120E080228194F8301004F11000C0
:103AF0000844E060206801682046884794F8310057
:103B0000A17A0844C0B284F831000021E18010BDE0
:103B1000C9B2FFF7E0BF10B5044690F8530008B1F2
:103B2000012010BD2068016820468847002104F864
:103B3000521F617010BD818090F8522000F1320157
:103B40001144C16000210181C1807047C9B2FFF7F3
:103B5000F2BF10B590F8302090F831400021A24219
:103B600004D100F8301F4170002010BD641E00F128
:103B70001003A24205D1D25C00F8301F41701046FC
:103B800010BD511C80F83010D05C10BD10B590F8FD
:103B90005220202A0AD0134600F13204521C80F829
:103BA000522019550189491C018110BD012180F85D
:103BB000531010BD90F8311090F83000081AC0B2C0
:103BC00070470A7842604B7842EA032242608B7861
:103BD00042EA03424260CB7842EA036242600B79D8
:103BE0000A1D8360497943EA01218160937841EAA3
:103BF00003418160D27841EA026181600820704708
:103C000000487047E84F0008004870470950000816
:103C100002490022C0E90012826070475C4E000831
:103C20000048704717500008004870473850000897
:103C3000004870474D500008004870476E5000081B
:103C400010B50A784B7842EA03228B7842EA0342A5
:103C5000CB7842EA036242600B794C79CA7943EA35
:103C600004238C7943EA044343EA026282600B7ABC
:103C700001F10802497A43EA01219378D27841EAB6
:103C8000034141EA0261C1600C2010BD0048704749
:103C90007C500008004870479D50000870B50646EB
:103CA0000C46001D00F008F80546611906F11400E5
:103CB00000F002F8284470BD30B54368C3F3C75420
:103CC0000CB104F5607400220A704A708A705D01BC
:103CD000CD70DD080D71DD0A4D71C3F3C34343EAB6
:103CE00004158D712409CC7190ED010AB5EEC00A5E
:103CF000F1EE10FA02D244F08004CC718368C3F371
:103D0000C7540CB104F560740A724A728A725D017C
:103D1000CD72DD080D73DD0A4D73C3F3C34343EA6F
:103D200004158D732409CC7390ED020AB5EEC00A18
:103D3000F1EE10FA02D244F08004CC73C368C3F3EE
:103D4000C7540CB104F560740A744A748A745A0139
:103D5000CA74DA080A75DA0A4A75C3F3C34343EA38
:103D600004128A752309CB7590ED030A1822B5EE6B
:103D7000C00AF1EE10FA02D243F08000C875104676
:103D800030BD2DE9F04106460079087000204870EA
:103D900088700D46C870042401460DE0F2682B19A6
:103DA00052F821202A55170A5F70170C120E491C71
:103DB0009F70DA70C9B2241D32798A42EED8317C04
:103DC0002955641C00222855641C2855641C28555C
:103DD000641C0DE0B1692B1951F8221029550F0A06
:103DE0005F700F0C090E521C9F70D970D2B2241D47
:103DF000317C9142EED8317F2955641C002728552B
:103E0000641C2855641C2855641C12E0706A50F824
:103E10002700FCF72EFA291980460860706A241DD5
:103E2000424650F827102819FCF7FFF97F1C44443C
:103E3000FFB2307FB842E9D82046BDE8F08170B5C6
:103E40000646007908700C46B068FCF712FA054681
:103E5000C4F80100601D2A46B168FCF7E6F9681D48
:103E600070BD2DE9F041054600790870A8880C4620
:103E7000000A4870A868FCF7FCF90646C4F802007E
:103E8000A01D3246A968FCF7D0F9B61DE868FCF71A
:103E9000F0F90746A019361D0760A0193A46E968EF
:103EA000FCF7C3F93E442869FCF7E3F90746A0197B
:103EB000361D0760A0193A462969FCF7B6F9F019D2
:103EC0006969221821540B0A53700B0C090E937068
:103ED000D170001DBDE8F08102790A708288120A53
:103EE0004A704268120C8A704268120ECA70027AD6
:103EF0000A710289130A0A1D4B718168090C9170BD
:103F00008068000ED0700820704710B542680A70B3
:103F1000130A4B70130C8B70120ECA7082680A71F0
:103F2000140A4C71140C8C71120ECA71C06808729C
:103F3000030A01F108024B72010C9170000ED0705F
:103F40000C2010BD70B505460C46001DFFF7B4FEF1
:103F50000646A11905F11400FFF7AEFE0644A119AB
:103F600005F12400FFF7A8FE304470BD10B542688B
:103F70000A70130A4B70130C8B70120ECA70826891
:103F80000A71140A4C71140C8C71120ECA71C0683B
:103F90000872030A01F108024B72010C9170000EC5
:103FA000D0700C2010BD00000FB4084B10B504A950
:103FB00002AA039800F084F9044602A9002000F048
:103FC00095FA204610BC5DF814FB0000ED44000893
:103FD0000907090E002804DB00F1E02080F8001436
:103FE000704700F00F0000F1E02080F8141D7047CA
:103FF00030B528B1144C031F002021680A4605E0A3
:10400000084630BD9A4203D810465268002AF9D1BA
:10401000002800D041680BD00468A3EB0005A5423E
:1040200004D11B681C440346046002E0436000E0C6
:1040300023603AB11C68D51AA54203D115682C44F7
:104040001C6052685A6030BD400000202DE9F047E6
:1040500082460F4C10480D4E0E4F001B4FF00008CB
:1040600020F007054FF0010900221146504600F0EC
:1040700043FA002802D1306810B10020BDE8F08773
:104080003C60C4E90058C6F80090EDE74400002009
:10409000CC13002040000020C815002002E008C812
:1040A000121F08C1002AFAD170477047002001E0B2
:1040B00001C1121F002AFBD170470000F0B52DEDA1
:1040C000048B81B09FED628AB0EE482AF0EE481A68
:1040D000DFED608AB0EE681A9FED5F9AF0EE490A54
:1040E000DFED5E9A5E48B0EE690AFFF7EDF85C48D6
:1040F000B0EE482AF0EE481AB0EE681AF0EE490A1F
:10410000B0EE690A3030FFF7DFF8554840F23F243F
:104110002346FE2200216030FFF72AFB5048234649
:10412000FE2201217030FFF723FB4D484FF4C3649A
:1041300000234FF6FF752A46194680300094FFF79A
:1041400065FB474800232A460121A0300094FFF771
:104150005DFB9FED441ADFED440A9FED440A4048A1
:104160004FF4B771C030FEF789FE3D48D430FEF7FA
:1041700087FF1030FEF784FF1030FEF781FF00212B
:104180002430FFF79FFC3A4A3A494438FCF788F854
:10419000394800F08DFD394839490024E0E802141F
:1041A00040F8084B40F8044C40F80C49FEF768FF13
:1041B000046144618461C4611030FEF761FF0461F1
:1041C00044618461C4611030FEF75AFF2B482D49C9
:1041D00034309FED2D8A016080ED018A80ED028AE6
:1041E00080ED038A10302C4940F80C1B2B4927A77F
:1041F00002C0284E0125FEF743FF1030FEF740FFB6
:1042000040F8187CC0E904651C49284E7C312648DA
:10421000CE60086081ED048A81ED058A20A581EDDC
:10422000068A204B01228D60C1E9073201F124008A
:104230001FA1A0F16C020461C0E9001214300F4903
:104240001DA20461C0E9002101B0BDEC048BF0BDEA
:10425000CDCC4C3ECDCCCC3D00007F4300007FC395
:1042600050000020EC51383E0AD7233E96438B3D48
:104270000000000861360008C0010020FC1000208A
:104280008C4E0008744E000800000000636D645FEF
:1042900076656C00792B0008184E0008A04D0008C8
:1042A00070696400452B0008304E0008A44E0008D9
:1042B0007261775F76656C007261775F696D75001A
:1042C0002DE9FF4F8BB09A460F460446002606E0C4
:1042D00025280BD052460D999047641C761C2078F7
:1042E0000028F5D10FB03046BDE8F08F0025A94673
:1042F00001227D4900E0054314F8013F203B02FA0A
:1043000003F00842F7D120782E2817D114F8010FB6
:1043100045F004052A280ED06FF02F022078A0F176
:10432000300109290AD809EB890102EB410100EBB0
:104330000109641CF2E757F8049B641C20786C2880
:104340000DD004DC4C2812D06A2811D104E0742866
:104350000DD07A280CD10AE045F4001507E0617809
:1043600045F48015814202D1641C05F58015641C5A
:10437000207869283ED006DC0028B3D063280BD013
:10438000642804D136E0732810D075285CD05246DA
:104390000D999047761CA5E017F8040B8DF80000E6
:1043A00000208DF80100E846012003E057F8048B57
:1043B0004FF0FF3069074FF0000501D40AE06D1C93
:1043C0004D450DDA8542FADB18F805100029F6D1C3
:1043D00006E06D1C8542FCDB18F805100029F8D1B9
:1043E0002E4404E018F8010B52460D9990476D1EBB
:1043F000F8D277E000200A90C5F302504FF00A0B84
:1044000002280CD001CFC117021E71F100020CDA94
:104410000023D0EB030063EB01012D2208E0FF1D18
:1044200027F00707F7E80201EEE72A0504D52B225B
:104430008DF82420012203E0EA070FD02022F7E7BD
:104440000DF12008089218E000200A90C5F30250F0
:104450004FF00A0B022803D001CF00210022EFE722
:10446000FF1D27F00707F7E80201F7E75A460A9B06
:10447000FBF7AAFE303208F8012D50EA0102F5D10F
:10448000ADEB080000F1200B680701D44FF00109E3
:10449000D94502DDA9EB0B0000E000208146002594
:1044A00006E009A85246405D0D9990476D1C761CA8
:1044B00008988542F5DB04E0302052460D9990477C
:1044C000761CB9F10001A9F10109F5DC05E018F845
:1044D000010B52460D999047761CBBF10001ABF1E0
:1044E000010BF4DC641CFAE6092801000A68531C7D
:1044F0000B601070704700002DE9F0410B3020F088
:104500000706104D19E02068B04215D3B0420AD911
:10451000871B201DD4F80480FBF787FEA019C0E993
:104520000078286004E060682860201DFBF77DFEAD
:10453000201D2660BDE8F081251D2C68002CE2D1ED
:104540000020F7E74000002070B51F4C2046FEF722
:10455000C3FC1E4D2969401A142805D3FEF772FBCF
:104560002046FEF7B9FC28612046FEF7B5FC6968D5
:10457000401AB0F5C87F01D3FEF7D4FB2046FEF702
:10458000ABFCE968401A14280AD3287810B1FEF76A
:1045900009FB01E0FEF79EFA2046FEF79DFCE8606D
:1045A0002046FEF799FCA968401AB0F57A7F05D33A
:1045B000FEF758FA2046FEF78FFCA860BDE8704071
:1045C0000148001F00F010BAC401002000000020C4
:1045D000FCF77AFCFDF7FEFDFDF7B2FCFDF792FC5F
:1045E000FDF7E4FCFDF7D4FDFDF712FDFDF766FDD8
:1045F000FDF79AFD1048FCF7E9FF1048FCF7E6FFCD
:104600000F48FCF7E3FF0F48FCF7E0FF00210B48E1
:10461000FDF784FA04210948FDF780FA3C21084897
:10462000FDF700F93C210748FDF7FCF800F042F8DF
:10463000FFF78AFFFCE70000C411002004120020ED
:1046400044120020841200202DE9F04704008A461D
:1046500016D054F8047CD4F800903E1F564500D97B
:1046600056462046FFF7C4FC05468846324621469A
:104670005046FFF741FF40B1C0F80090BDE8F08719
:10468000BDE8F0470846FFF7E1BC44E9017955B1C0
:1046900029686A18211F8A4202D9611B091F2960F3
:1046A000C5F80480EAE7024AC2F80080E6E70000A5
:1046B0004000002070B53248FEF7D8FF3048103077
:1046C000FEF7D4FF2E482030FFF756F82C48403034
:1046D000FFF752F82A487430FEF7A6FF294C251D33
:1046E0002846FEF7F1FB2868FCF770FF0020C4F8AD
:1046F000EC0EC4F8F00EC4F8F80EC4F8F40E04F68C
:10470000DC71204600F0BEFA04F57F61204600F01F
:10471000B9FA214601F6B8725FF0000001EB8003A0
:10472000D3F8883E7BB1401C1928F7DB15490020DF
:1047300001F5786201EB8003D3F8883E53B1401C49
:104740001928F7DB0CE001EB80016430C1F8882EFA
:104750005060EBE701EB80016430C1F8882E5060B7
:10476000084C00BF94F8000F0028064805D0BDE8AB
:10477000704005A2012100F0AFB800F035F9F1E773
:10478000B0000020C0010020477569646542617374
:104790006520436F6E6E65637465642100000000E0
:1047A00000487047D54E0008406B704770B504460E
:1047B0000C300546FEF7C4FB2846216BBDE870406F
:1047C0000847000000487047B44E00080048704792
:1047D0009D500008006A704770B504460C300546CD
:1047E000FFF72EFA2846E169BDE87040084700004F
:1047F000004870477C500008F0B587B004462C484C
:1048000000254FF40076009004EB8507D7F8240EBE
:10481000E8B10089ADF80400D7F8240E00680290D2
:10482000D7F8240E07F6246740680168896888472E
:104830000390386840680168C9688847CDE9040674
:1048400038686A46016920680368204698476D1CED
:10485000192DD9DB5FF0000504EB8507D7F8880E2A
:10486000F0B18088ADF80400D7F8880E8068029017
:10487000D7F8880E07F6886701688968884703902B
:1048800038680168C9688847CDE904063868016856
:1048900049688847014620686A4603682046984769
:1048A0006D1C192DD8DB012084F8000F07B0F0BD76
:1048B000004E00083EB504466846FFF7A9F9206897
:1048C0006A460A21036820469847201DFEF704FB2C
:1048D000C4F8180A3EBD00000EB5054B00938DF8D4
:1048E0000410029201686A460B68072198470EBDC2
:1048F000E84D00082DE9F0470D460446642903DB26
:1049000094F8000F002860D0106804F62B4103686B
:1049100010469847FF2184F8241CFE2184F8251CAA
:1049200084F8260C010A84F8271C0144C9B2C1F19D
:10493000FF0184F8281C84F8295C290A84F82A1CC1
:1049400000210522C31D04E0A518521C95F8245C23
:1049500029449A42F8D3CA1701EB126222F0FF02EF
:10496000891AC01D2218C1F1FF01451C82F8241CC0
:10497000B5F5007F2BD8261D4FF4006704F62448B8
:10498000BD4200DC2F46D6F80C1AC1F50064BC42CB
:1049900000D33C4606F5037901EB09002246414667
:1049A000FBF743FCB6F80C0AA7423844C0F30A00F0
:1049B000C6F80C0A05D03A1B08EB04014846FBF781
:1049C00034FC3046FEF78EFA2846BDE8F0870349EE
:1049D000204600F005F84FF0FF30F6E7AF4F000833
:1049E0000A460321FFF778BF2DE9FF5F0446001D4B
:1049F000FEF772FAD4F8081F0546401A42F6F8216D
:104A00000026884201D984F8006FD4F8EC0E28B152
:104A1000D4F80C0FA84201D2C4F8EC6EDFF858921B
:104A20004FF0FF3B4FF008084FF0010A04F624272F
:104A3000A068211D406B006840684042C0F3080236
:104A4000D4F80C0282420BD0421C01F10803C1F8D9
:104A50000822C05CC2F30802C1F80822002812DA5A
:104A600094F8000F58B1D4F8040F40F6C411281A76
:104A7000884204D92046FFF71DFFC4F8045F0020D8
:104A800004B0BDE8F09FD4F8FC1E0A18C4F8FC2E50
:104A9000D4F8EC1E072928D099B301294AD002295D
:104AA00056D003295AD0042962D0052969D0062995
:104AB00070D00829BCD102EA0902C4F8EC6EFF2AC2
:104AC000B6D1D4F8F40EA0B30A2871D0062870D05D
:104AD0000B286FD004EB8000D0F8F80C0028A7D08A
:104AE00001680A6839469047A2E7D4F8F81E4A1CC4
:104AF000C4F8F82EC855D4F8F00E401EC4F8F00ED5
:104B000053E002E0C4F8EC8E92E7FF280AD0201DA3
:104B1000FEF7E2F9401B05288AD984F8006F6FF090
:104B20000100ADE705F11400C4F8ECAEC4F80C0FB9
:104B30007EE740E0FE2809D0C4F8EC6E94F8000F40
:104B40000028D1D12046FFF7B5FE71E702200CE026
:104B5000C4F8F86E0321C4F8F00E15E0D4F8F01E86
:104B600001EB0020C4F8F00E0420C4F8EC0E5FE75F
:104B700002EA0902FF2A02D0C4F8EC6E58E70520C9
:104B8000F3E70621C4F8F40EC4F8EC1EC4F8FC0EDA
:104B90004EE7FFE7D4F8F41E01EB0020C4F8F40E52
:104BA0000720C4F8EC0ED4F8F00E00289CD1A9E739
:104BB0000DE056E05DE02046FFF77CFE2046FFF763
:104BC0001BFEC4F8045F5846C4F8085F58E701A804
:104BD000FFF71EF8201DFEF77FF9D4F8181A401AC7
:104BE0000090394601A8FEF7ECFF00984FF47A7167
:104BF000B0FBF1F002990844029000984FF47A71EA
:104C0000B0FBF1F201FB120043F60951484303994E
:104C100001EB80100390201DFEF75EF94FF47A71CE
:104C2000B0FBF1F1029A511A491EC4F81C1A4FF454
:104C30007A71B0FBF1F201FB1200104948431049B0
:104C400001EB80100399084404F52261C4F8200A9E
:104C5000081FFEF73DFB201DFEF73EF9C4F8080FC4
:104C6000E6E6394604F61470FEF71DFA84F810AF34
:104C7000DEE684F8006FDBE6FF000080F7C2FFFF8E
:104C800000CA9A3B5FF0000200EB8203D3F8243E97
:104C900023B1521C192AF7DB0020704700EB820376
:104CA0007D32C3F8241EC1E90220012070470000B4
:104CB00010B51E4901601E4941601E4981600021F6
:104CC000C0F80C12C0F8101AC0F8141A40F614728A
:104CD00080F8001F184B13504FEA010200EB8203CB
:104CE000521CC3F8241E192AF8D3002200EB8203B9
:104CF000521CC3F8881E192AF8D300224FF40073FF
:104D00008418521C84F8241A9A42F9D30022841879
:104D1000521C84F8241C9A42F9D380F8181FC0F85A
:104D2000201F80F8241FC0F82C1F10BD484E00081B
:104D3000C4110020C4120020D04D0008726F73739C
:104D4000657269616C5F6D7367732F52657175650C
:104D50007374506172616D00000610160006101623
:104D6000000000000000000001020304060708091B
:104D70000000000001020304010002000100020023
:104D800000400080400080000000000000000000A3
:104D90007D3900080939000800000000000000000B
:104DA0009D3C0008412F0008652F00085D2F00087A
:104DB0000000000000000000B93C00086D2F000852
:104DC0007930000871300008000000000000000089
:104DD000833D0008A73000089D3100089531000888
:104DE00000000000000000003F3E0008000000003E
:104DF000AD310008A53100080000000000000000EF
:104E0000633E000800000000BD310008B531000815
:104E10000000000000000000AD470008A94700089E
:104E2000A1470008C547000800000000000000007E
:104E3000D9470008D5470008CD470008F1470008CA
:104E40000000000000000000F5480008E9490008E3
:104E5000000000000000000000000000D93E000833
:104E6000C33B0008093C0008013C000800000000AA
:104E7000000000000B3F000800000000293C000873
:104E8000213C00080000000000000000453F000831
:104E900000000000393C0008313C00080000000020
:104EA000000000006D3F0008413C0008953C0008F0
:104EB0008D3C000839663139356638383132343640
:104EC00066646661323739386431643365656263BC
:104ED000613834610067656F6D657472795F6D73F9
:104EE00067732F54776973740034613834326236D3
:104EF000356634313330383464633262313066625F
:104F00003438346561376631370067656F6D6574B5
:104F100072795F6D7367732F566563746F723300B8
:104F20003966306539386264613635393831393837
:104F300036646466353361666137613430653439AF
:104F400000313161626437333163323539333332A2
:104F50003631636436313833626431326436323923
:104F60003500726F7373657269616C5F6D7367731F
:104F70002F4C6F67003061643531663838666334B2
:104F80003438393266386331303638343037373672
:104F9000343630303500726F7373657269616C5FDF
:104FA0006D7367732F546F706963496E666F004D40
:104FB0006573736167652066726F6D2064657669DD
:104FC00063652064726F707065643A206D657373F9
:104FD000616765206C6172676572207468616E201C
:104FE0006275666665722E006364373136366337E4
:104FF00034633535326333313166626363326665FB
:105000003561376263323839007374645F6D73677A
:10501000732F54696D65003065653861643463626F
:10502000373830396265326435613061373633354F
:10503000326665613836610072696B695F6D7367EE
:10504000732F56656C6F6369746965730032373509
:105050003131303430356630386531623763306332
:1050600030663161626133653139633637007269A8
:105070006B695F6D7367732F496D750061353539E5
:105080006466313837626466363366343236643586
:105090006633303462366232386262340072696B71
:1050A000695F6D7367732F5049440000D05000084A
:1050B00000000020500000009C4000082051000823
:1050C0005000002078190000AC400008F1EFFFFF0D
:1050D00001000000000000000000000000000000CF
:1050E00000000000000000000000000000000000C0
:1050F000000000000000000001000000100000009F
:10510000000000000024F400000002400000024003
:10511000000000000000000000000000000000008F
:040000050800018965
:00000001FF
